:020000040800F2
:1000000028050020D50000088D0800088307000897
:1000100000000000000000000000000000000000E0
:100020000000000000000000000000000B090008B4
:100030000000000000000000090900080D09000888
:10004000000000000000000000000000E7000008C1
:10005000E7000008E7000008E7000008E7000008E4
:100060000000000000000000000000000000000090
:10007000E7000008E7000008E700000800000000B3
:1000800000000000E7000008000000000000000081
:1000900000000000E700000800000000E700000882
:1000A00000000000E700000800000000E700000872
:1000B0000000000000000000000000000000000040
:1000C0000348854600F02AF800480047410100082F
:1000D000280500200448804704480047FEE7FEE763
:1000E000FEE7FEE7FEE7FEE715090008C10000088D
:1000F00030B50B46014600202022012409E00D46C0
:10010000D5409D4205D31D469540491B2546954047
:1001100040191546521E002DF1DC30BD064C01255C
:10012000064E05E0E36807CC2B430C3C984710349F
:10013000B442F7D3FFF7C8FF000D0008200D0008F8
:1001400070B50125ED06002406E0A0002858A100A6
:10015000064A5050601CC4B2302CF6DB0120400728
:100160000349886000F048FD002070BD00000020B9
:1001700000ED00E010B586B0044600BF00BF144893
:10018000406B01210843124948630846406BC00791
:10019000C00F009000BF00BF00BF60000D49085AAB
:1001A0000190012002900020039002200490A10001
:1001B000094A505801A900F093F86200054B995A7A
:1001C000A200054B9858012200F06DF906B010BD51
:1001D00000100240F80C0008C800002000B587B0ED
:1001E00000BF0020019030480068012189030843C6
:1001F0002D490860084600680121890308400190E4
:1002000000BF00BF29482A490860E1204002486039
:10021000002127488160C160016181610C21416139
:1002200000F0EAF900BF20484038406B0121084344
:100230001D49403948630846406BC007C00F019014
:1002400000BF00BF00BF0846406B012108431649AC
:10025000403948630846406BC007C00F019000BF9B
:1002600000BF04200290022003900120049003208C
:1002700005900120069002A90520000700F030F843
:10028000082002900120069002A90520000700F036
:1002900027F8012200211B2000F06EF91B2000F03E
:1002A0005FF907B000BD0000401002400038014077
:1002B000E000002070B5044600F0FCF80646254634
:1002C000681C002802D0054800682D1800BF00F007
:1002D000F1F8801BA842FAD370BD0000D8000020BE
:1002E00070B503460022CBE0012696400C683440EE
:1002F000002C71D04D68022D02D04D68122D15D101
:10030000D508AE001D462035A8595507EE0E0F251D
:10031000B5400646AE4330465607F60E0D69B54069
:100320002843D508AD001E46203670511868560087
:100330000325B5400646AE4330460D79AD07AD0FF7
:100340005600B540284318604D68012D08D04D680F
:10035000022D05D04D68112D02D04D68122D18D1F7
:10036000986856000325B5400646AE433046560011
:10037000CD68B540284398605868012595400646E9
:10038000AE43304610264D6835402D099540284330
:100390005860D86856000325B5400646AE4330463F
:1003A00056008D68B5402843D860012636074D6851
:1003B0003540B54263D1354D9608B600A85995072A
:1003C000EE0E0F25B5400646AE43304605252D07F7
:1003D000AB4202D1002506E051E02D4DAB4201D1E8
:1003E000012500E002259607F60EB5402843274D6B
:1003F0009608B600A851254D203528680546A54326
:100400002846012636044D683540B54202D10546DE
:10041000254328461D4D2035286068680546A543BC
:100420002846012676044D683540B54202D105467E
:1004300025432846154D20356860144D603D2868D9
:100440000546A5432846012636054D683540B54288
:1004500002D10546254328460C4D603D286068685A
:100460000546A5432846012676054D683540B54228
:1004700002D1054625432846044D603D6860521C64
:100480000D68D540002D00D02EE770BD60180240E9
:1004900000040050024613690B40002B01D00120DC
:1004A00000E000207047002A01D0816100E08162F5
:1004B000704700000148006870470000D00000202D
:1004C00003480068034909684018014908607047FB
:1004D000D0000020D800002010B50024032000F038
:1004E00009F8002801D0012401E000F033F820468B
:1004F00010BD0000F8B50446002513480068002828
:100500001ED0114801687D20C000FFF7F1FD0746AD
:1005100039460E480068FFF7EBFD064600F050F83C
:1005200000280BD1042C07D200222146401E00F0E7
:1005300023F80748046004E0012502E0012500E0FB
:1005400001252846F8BD0000D8000020C00000208A
:10055000D400002010B50020FFF70CFE10BD0000F5
:1005600000BFC206D20E01219140024A116000BFB5
:100570007047000000E100E070B504460D461646E5
:100580002946204600F084F970BD0000014800684B
:1005900070470000C000002000B5FFF7F7FF0649D4
:1005A0008968072212031140090B8900034A515C34
:1005B000C906C90EC84000BD00100240B80C0008B2
:1005C00070B504462546681E0949884201D90120B4
:1005D0000CE0681E074948610321081F00F058F924
:1005E00000200449886107200861002070BD0000D8
:1005F000FFFFFF0000E000E010B50446002C01D131
:10060000012010BDA069002800D000E000BF3D20FF
:10061000005D002805D100213C200155204600F056
:1006200030F824213D2001552068C068012149038C
:1006300088432168C860204600F09EF9206A00289F
:1006400002D0204600F07CF9206800690121C9022F
:10065000884321680861206840690821884321682F
:1006600048612068C0680121490308432168C860C7
:100670000020206420213D2001553E20015500200E
:10068000BFE77047FFB583B004460D46174600200C
:1006900001903D20005D202871D1002D01D0002F58
:1006A00002D1012007B0F0BD01210903A0688842F2
:1006B00008D12069002805D1E807C00F002801D023
:1006C0000120EFE700BF3C20005D012801D102209E
:1006D000E8E701213C20015500BF002020642121D2
:1006E0003D200155FFF7E6FE019027866786012130
:1006F0000903A068884205D12069002802D100269C
:10070000029502E02E46002002901EE0069800901E
:10071000002280212046019B00F000FA002801D031
:100720000320BFE7002E09D102980088C005C00D44
:10073000216848600298801C029003E030782168AC
:100740004860761C608E401E6086608E0028DDD179
:1007500006980090002240212046019B00F0DEF91F
:10076000002801D003209DE720213D20015500BF36
:1007700000213C20015500BF002093E7FFE7022045
:1007800090E700BFFEE7000000B587B000BF1A4841
:10079000406B01210843184948630846406BC00775
:1007A000C00F019000BF00BF012002900020039005
:1007B00004900220059002A905200007FFF790FD94
:1007C00000BF0D48406B022108430B4948630846AF
:1007D000406B02210840019000BF00BF062002903C
:1007E00001200390002004900220059002A90348F4
:1007F000FFF776FD07B000BD001002400004005076
:1008000010B50024012105200007FFF743FE002852
:100810000ED10F20FFF74EFD00BF0121052000077C
:10082000FFF738FE0028F8D00F20FFF743FD012422
:10083000204610BD10B502210848FFF72BFE002806
:1008400005D1012202210548FFF72DFE04E0002218
:1008500002210248FFF727FE10BD000000040050EF
:1008600010B504210848FFF715FE002805D1012224
:1008700004210548FFF717FE04E000220421024886
:10088000FFF711FE10BD000000040050704700008B
:1008900010B5002819DA1A4A03071B0F083B9B08FA
:1008A0009B00D2588307DC0EFF23A3409A438B079B
:1008B0001B0E8407E40EA3401A43114B0407240FB8
:1008C000083CA408A4001A5118E00E4A03231B0296
:1008D000D21883089B00D2588307DC0EFF23A34065
:1008E0009A438B071B0E8407E40EA3401A43054B63
:1008F000032424021B198408A4001A5110BD00000F
:100900001CED00E000E100E07047704710B5FFF714
:10091000D7FD10BD07484068000C000401214903C1
:10092000401805494968084302494860C80303491B
:100930008860704700100240000FFF1F00ED00E0CC
:100940004022016A1140002915D0016849699201CD
:100950009143426A11430268516101221203416AC4
:10096000914208D101684969032252039143826A86
:100970001143026851617047FEB504462068006962
:10098000012149038843E16808432168086121691E
:10099000A06808436169084302902068C0685E4906
:1009A0000840029908432168C860E0690290206805
:1009B00040690121C90288430299084321684861BE
:1009C00020684069032109028843A169084321681E
:1009D00048610121C902E06988424ED1FFF7DCFD80
:1009E00005466268510019226A431046FFF780FBF2
:1009F00006466421FFF77CFB07016268510019225B
:100A00006A431046FFF774FB0646626851001922DC
:100A10006A431046FFF76CFB64210090FFF768FB08
:100A200064214843301AC00032300190FFF760FB68
:100A3000F821084040003F186268510019226A43BB
:100A40001046FFF755FB06466268510019226A43BB
:100A50001046FFF74DFB64210090FFF749FB64212E
:100A60004843301AC00032300190FFF741FB400785
:100A7000400F3818216888604CE0FFF78DFD05466F
:100A80006268910019226A431046FFF731FB06465F
:100A90006421FFF72DFB07016268910019226A4368
:100AA0001046FFF725FB06466268910019226A434B
:100AB0001046FFF71DFB64210090FFF719FB64212E
:100AC0004843301A000132300190FFF711FBF0214A
:100AD00008403F186268910019226A431046FFF7E8
:100AE00007FB06466268910019226A431046FFF729
:100AF000FFFA64210090FFF7FBFA64214843301AA3
:100B0000000132300190FFF7F3FA0007000F3818A8
:100B100021688860FEBD0000F3E9FFFFFFB581B0EA
:100B200004460D4617460A9E24E0701C002821D07A
:100B3000002E05D0FFF7BEFC0499401AB04219D927
:100B40002068C068FF21A13188432168C8602068FF
:100B50004069400840002168486120213D2001553E
:100B60003E20015500BF00213C20015500BF03205D
:100B700005B0F0BD206800682840A84201D10120DE
:100B800000E00020B842D0D00020F1E710B5024AC2
:100B9000024900F014F810BDDD0B0008DC00002055
:100BA00002E008C8121F08C1002AFAD17047704736
:100BB000002001E001C1121F002AFBD17047F8B5E7
:100BC00016460F460446002503E03946B047641C2C
:100BD0006D1C20780028F8D12846F8BD13B50C46C6
:100BE0007D23DB00012269460248FFF74BFD009898
:100BF0001CBD0000E0000020FFF76EFCFFF7C4FD05
:100C0000FFF7ECFA27E0FFF7FBFD134908700846F1
:100C1000007801281FD111480078401C0F49087046
:100C200008460078012804D0022808D0032810D1F3
:100C30000BE00BA0FFF7AAFFFFF7FCFD0AE00BA0FB
:100C4000FFF7A4FFFFF70CFE04E000200349087043
:100C500000E000BF00BFD6E7C4000020C5000020B0
:100C6000706167652030FFFFFF00000070616765FD
:100C70002031FFFFFF000000000000000000000026
:100C80000000000000000000000000000000000064
:100C90000000000000000000010000000200000051
:100CA0000300000004000000060000000700000030
:100CB0000800000009000000000000000000000023
:100CC0000000000000000000010000000200000021
:100CD000030000000400000000093D0000127A003B
:100CE0000024F4004086510100366E0100093D00E9
:100CF00000093D0000093D0020000400060000003E
:100D0000200D000800000020E0000000A00B0008FB
:100D1000000E0008E000002048040000B00B0008AE
:100D200000000000000000000000000000000000C3
:100D300000000000000000000000000000000000B3
:100D400000000000000000000000000000000000A3
:100D50000000000000000000000000000000000093
:100D60000000000000000000000000000000000083
:100D70000000000000000000000000000000000073
:100D80000000000000000000000000000000000063
:100D90000000000000000000000000000000000053
:100DA0000000000000000000000000000000000043
:100DB0000000000000000000000000000000000033
:100DC0000000000000000000000000000000000023
:100DD0000000000000000000000000000000000013
:100DE00000127A00000000000000005000040050D3
:100DF00000000000040000000100000000000000EE
:04000005080000C12E
:00000001FF
